:020000040800F2
:10000000700D00200D020008A90800088F040008E8
:10001000A508000859030008EF17000800000000B9
:10002000000000000000000000000000371200087F
:100030005D030008000000002F0F00089D1300085A
:1000400027020008270200082702000827020008EC
:1000500027020008270200082702000827020008DC
:1000600027020008270200082702000827020008CC
:1000700027020008270200082702000827020008BC
:1000800027020008270200082702000827020008AC
:10009000270200082702000827020008270200089C
:1000A000270200082702000827020008270200088C
:1000B000270200082702000827020008270200087C
:1000C000270200082702000827020008270200086C
:1000D000270200080114000845150008270200083F
:1000E000270200082702000827020008270200084C
:1000F000270200082702000827020008270200083C
:10010000270200082702000827020008270200082B
:10011000270200082702000827020008270200081B
:10012000270200082702000827020008270200080B
:1001300000F002F800F05AF80AA090E8000C82449F
:100140008344AAF10107DA4501D100F04FF8AFF27C
:10015000090EBAE80F0013F0010F18BFFB1A43F0A5
:1001600001031847E0460000004700000A444FF032
:10017000000C10F8013B13F0070408BF10F8014B06
:100180001D1108BF10F8015B641E05D010F8016B4B
:10019000641E01F8016BF9D113F0080F1EBF10F8AF
:1001A000014BAD1C0C1B09D16D1E58BF01F801CBD2
:1001B000FAD505E014F8016B01F8016B6D1EF9D555
:1001C0009142D6D37047000000230024002500266A
:1001D000103A28BF78C1FBD8520728BF30C148BFAA
:1001E0000B6070471FB51FBD10B510BD00F06EF855
:1001F0001146FFF7F7FF01F063FC00F0A0F803B42D
:10020000FFF7F2FF03BC01F0F4FA00000948804751
:1002100009480047FEE7FEE7FEE7FEE7FEE7FEE7E8
:10022000FEE7FEE7FEE7FEE704480549054A064B00
:1002300070470000A113000831010008700700207A
:10024000700D002070090020700900207047000028
:100250000FB4044910B503AA029800F009F810BCC5
:100260005DF814FB2C020020704770477047704700
:10027000074B70B50D467B4400F011F80446284644
:1002800000F020F810B14FF0FF3070BD204670BD77
:100290009717000001694A1C02610878704700B591
:1002A0008FB0CDE901310021059105497944CDE9AF
:1002B00003101146684600F02EF80FB000BD000094
:1002C000E5FFFFFF007B00F080007047754600F0FF
:1002D0003FF8AE4605006946534620F007008546C4
:1002E00018B020B5FFF7A0FFBDE820404FF0000692
:1002F0004FF000074FF000084FF0000B21F007010E
:10030000AC46ACE8C009ACE8C009ACE8C009ACE850
:10031000C0098D4670472DE9F04106460024D6E914
:100320000170F5688046304603E04146B847641CDA
:100330003046A8470028F8D12046BDE8F08110B526
:100340000446AFF300802046BDE81040FFF757BFDA
:10035000004870470C07002000BFFEE770472DE9FA
:10036000F04102460025002600200023002400273B
:1003700091F803C00CF00F0591F803C00CF0100CBD
:10038000BCF1000F03D091F802C04CEA050591F8CA
:1003900000C0BCF1000F31D0146800202BE04FF0FA
:1003A000010C0CFA00F3B1F800C00CEA03069E42FF
:1003B00020D183004FF00F0C0CFA03F7BC4305FA71
:1003C00003FC4CEA040491F803C0BCF1280F06D1E9
:1003D0004FF0010C0CFA00FCC2F814C00AE091F8CE
:1003E00003C0BCF1480F05D14FF0010C0CFA00FC22
:1003F000C2F810C0401C0828D1D31460B1F800C066
:10040000BCF1FF0F34DD546800202EE000F1080C31
:100410004FF0010808FA0CF3B1F800C00CEA03062B
:100420009E4221D183004FF00F0C0CFA03F7BC431E
:1004300005FA03FC4CEA040491F803C0BCF1280F50
:1004400005D100F1080C08FA0CF8C2F8148091F8F4
:1004500003C0BCF1480F07D100F1080C4FF00108B0
:1004600008FA0CF8C2F81080401C0828CED354605B
:10047000BDE8F0810246002093680B400BB10120DB
:1004800000E000207047416170470161704700BF84
:10049000FEE7000010B54FF400610C48FFF7F5FFD0
:1004A0004FF480610948FFF7F0FF00F055F94FF471
:1004B00000610648FFF7E7FF00F04EF94FF4806156
:1004C0000248FFF7E0FF00F047F910BD000C0140C3
:1004D00010B54FF400610848FFF7D5FF4FF4806175
:1004E0000548FFF7D2FF00F037F94FF400610248EA
:1004F000FFF7CBFF10BD0000000C014010B54FF41A
:1005000000610A48FFF7C1FF00F026F94FF480614F
:100510000648FFF7BAFF00F01FF94FF48061034867
:10052000FFF7B1FF00F018F910BD0000000C01400A
:1005300010B500200A49086000F092FD002009492A
:10054000C1F89C01022001F037FA0120044908603B
:10055000022001F031FA00200249C1F8980110BDD3
:10056000988121420080214208B50121082000F035
:10057000EFFCC020ADF8000010208DF80300032030
:100580008DF8020069460248FFF7E9FE08BD000049
:10059000000C014010B500200A49086000F060FD21
:1005A00001200949C1F89C01022001F005FA01204F
:1005B00004490860022001F0FFF900200249C1F857
:1005C000980110BD988121420080214270B50546F6
:1005D000002400F037FD002616E000200F490860D7
:1005E000022001F0E9F901200D49C1F898016006E7
:1005F000040E0A487C38006808B1601CC4B20120AF
:1006000001F0DAF9701CC6B2082EE6DB15B9FFF767
:10061000C1FF01E0FFF78CFF204670BD98812142A9
:100620000080214270B5044600F01AFD00201349F5
:10063000086000251EE0E00920B101200F49091DD6
:10064000086003E000200D49091D08606006040EE3
:10065000022001F0B1F9012008490860022001F0F0
:10066000ABF900200649C1F89801022001F0A4F975
:10067000681CC5B2082DDEDB70BD000098812142E8
:100680000080214210B500F0EBFC01200949086010
:100690000949C1F89801042001F08EF900200549AC
:1006A0000860042001F088F900200349C1F898018E
:1006B00010BD00009C8121420080214210B500F055
:1006C000CFFC0020084908600849C1F89C010420BB
:1006D00001F072F90120044908600449C1F89C0145
:1006E000042001F069F910BD988121420080214267
:1006F00010B5002400F0A6FC01201149086002207A
:1007000001F05AF901200F49C1F89801022001F0C7
:1007100053F90AE0601CC4B2FA2C06DDFFF7CEFFE5
:1007200009A0FFF795FD012010BD0548803800683D
:100730000028EFD10249091F086000BFF4E700005C
:100740009C81214200802142726573706F6E65202A
:100750006661696C00000000032000BF011EA0F16B
:100760000102D0B2FAD1704710B510212648FFF728
:1007700081FE48B120212448FFF77CFE20B14021B2
:100780002148FFF777FE60BB0A2001F0EFF8102147
:100790001D48FFF76FFE40B900BF10211A48FFF750
:1007A00069FE0028F9D0012010BD20211648FFF76E
:1007B00061FE40B900BF20211348FFF75BFE00280F
:1007C000F9D00220F0E740210F48FFF753FEC8B9E7
:1007D00000BF40210C48FFF74DFE0028F9D0032050
:1007E000E2E710210848FFF745FE58B920210648E6
:1007F000FFF740FE30B940210348FFF73BFE08B940
:100800000020D1E70020CFE70008014010B5022109
:100810000648FFF738FEFA2001F0A8F80221034845
:10082000FFF733FEFA2001F0A1F810BD000C0140E3
:1008300010B502210748FFF726FE40F2DC5001F018
:1008400095F802210348FFF720FE40F2DC5001F04A
:100850008DF810BD000C014008B501210C2000F0FE
:1008600077FB0220ADF8000010208DF80300032074
:100870008DF8020069460948FFF771FD022107481B
:10088000FFF703FE7020ADF8000048208DF803004C
:1008900069460348FFF763FD08BD0000000C0140F6
:1008A0000008014000BFFEE77047000070B500215E
:1008B00000230F22C47804B3154C246804F4E064C8
:1008C000C4F5E064210AC1F10403CA40447804FA83
:1008D00003F184781440214309010E4C0678A15598
:1008E000047804F01F050124AC4005786D11AD00BB
:1008F00005F1E025C5F8004109E0047804F01F0582
:100900000124AC40044D0678761145F8264070BDB0
:100910000CED00E000E400E080E100E0024901436A
:10092000024A1160704700000000FA050CED00E07B
:1009300070B500240CE0002506E00020074901EB1B
:1009400085010855681CC5B2802DF6DB601CC4B259
:10095000042CF0DB00F010F970BD00005C040020F6
:1009600010B504461CB90021A62000F0C4FA012CE1
:1009700003D10021A72000F0BEFA10BD10B5044637
:100980003CB90021C82000F0B6FA0021A12000F0F7
:10099000B2FA012C07D10021C02000F0ACFA0021EE
:1009A000A02000F0A8FA10BDF0B514460B46CF17F2
:1009B00001EB5777C7F3C702CF1701EB5777FF104B
:1009C000A1EBC707FEB20123B340DDB24CB1134B1C
:1009D00003EB80039B5C2B43104F07EB8007BB545A
:1009E0001AE00E4B03EB80039B5CDB430B4F07EBE2
:1009F0008007BB54094B03EB80039B5C2B43074FE1
:100A000007EB8007BB54054B03EB80039B5CDB4388
:100A1000024F07EB8007BB54F0BD00005C040020D0
:100A200008B50121082000F093FA4FF44060ADF8BA
:100A3000000014208DF8030003208DF802006946A1
:100A40004548FFF78CFC4FF440614348FFF71DFD1C
:100A50000420ADF8000010208DF8030003208DF86D
:100A6000020069463D48FFF77AFC04213B48FFF746
:100A70000CFD04213948FFF706FDC82000F076FF81
:100A800004213648FFF701FD0021AE2000F033FAC3
:100A90000021084600F02FFA0021102000F02BFA68
:100AA0000021084600F027FA0021B02000F023FAC8
:100AB0000021812000F01FFA0021FF2000F01BFA26
:100AC0000021A12000F017FA0021A62000F013FA5F
:100AD0000021A82000F00FFA00211F2000F00BFADF
:100AE0000021C82000F007FA0021D32000F003FA0B
:100AF0000021084600F0FFF90021D52000F0FBF9A5
:100B00000021802000F0F7F90021D92000F0F3F94E
:100B100000211F2000F0EFF90021DA2000F0EBF9AE
:100B20000021084600F0E7F90021DB2000F0E3F99E
:100B30000021402000F0DFF900218D2000F0DBF9DA
:100B40000021142000F0D7F9FFF7F2FE0021AF20BA
:100B500000F0D1F908BD0000000C01400008014080
:100B600010B50246012000E050430B1EA1F1010424
:100B7000E1B2F9D110BD000070B500242BE004F102
:100B8000B001C8B2002100F0B6F90021084600F01B
:100B9000B2F90021102000F0AEF9FFF77BFC7820BD
:100BA00000F04AFBFFF7AAFC402000F045FBFFF7EE
:100BB000A5FC002509E0094901EB8501085D00F06D
:100BC0003BFBFFF79BFC681CC5B2802DF3DBFFF7F6
:100BD0007FFC601CC4B2042CD1DB70BD5C0400201F
:100BE0002DE9FE4F0746884692461C460197CDF8F0
:100BF0000080082C02D14FF006091FE02046E317C1
:100C000004EB5373DB1021464FEAE47C04EB5C7C7D
:100C10004FEAEC0CA4EBCC0CBCF1000F02D04FF06F
:100C2000010C01E04FF0000C6344224604EBD27C3F
:100C30004FEA6C0C03FB0CF303F0FF09AAF1200050
:100C4000C6B200255EE0082C07D106EB46002F490E
:100C500001EB400010F805B01DE00C2C07D106EBAD
:100C600046002B4901EB800010F805B013E0102C72
:100C700005D1284800EB061010F805B00BE0182C41
:100C800007D106EBC600244901EB800010F805B03F
:100C900001E0BDE8FE8F002002901CE00BF0010097
:100CA00028B1414638460C9AFFF77EFE09E00C98C1
:100CB00008B9012000E00020024641463846FFF70F
:100CC00073FE4FEA6B0B08F1010000F0FF08029879
:100CD000401CC0B2029002980828DFDB781CC7B223
:100CE000082C0BD004EBD4714A100199791A8A426E
:100CF00004D1019F00980830C0B20090DDF8008058
:100D0000681CC5B24D459EDB00BFC2E7302A000813
:100D1000582C0008CC300008BC3600082DE9FC4FE8
:100D20000746884616461C46BB46CDF8048020463A
:100D3000E21704EB5272D2102146E31704EB53730F
:100D4000DB10A4EBC3030BB1012300E000231A4422
:100D5000624392B20092002555E0102C05D12C4838
:100D600000EB461010F805A01BE0182C07D106EB8D
:100D7000C600284901EBC00010F805A011E0202CA6
:100D800005D1254800EBC61010F805A009E0402C5D
:100D900005D1224800EB462010F805A001E0BDE88F
:100DA000FC8F4FF000091CE00AF0010028B1414619
:100DB00038460B9AFFF7F8FD09E00B9808B90120B7
:100DC00000E00020024641463846FFF7EDFD4FEABD
:100DD0006A0A08F1010000F0FF0809F1010000F0C3
:100DE000FF09B9F1080FDFDB781CC7B2A7EB0B00D6
:100DF000A04204D15F4601980830C0B20190DDF8EE
:100E00000480681C85B200988542A6DB00BFC6E757
:100E10001844000878450008C0450008404600080E
:100E20002DE9FF4F82B0064691461F46DDE90F4A85
:100E30004FF0000B082C01D14FF0020B002530E0E1
:100E4000781B401EC1B20A20FFF78AFEB9FBF0F002
:100E50000A21B0FBF1F201FB1208B8F1000F0ED12C
:100E600004EBD4710BEB610101FB0561C8B22346B1
:100E70003022CDE900A40399FFF7B2FE0FE004EBA6
:100E8000D4710BEB610101FB0561C8B208F13001BF
:100E9000CAB22346CDE900A40399FFF7A1FE681C5E
:100EA000C5B2BD42CCDB06B0BDE8F08F2DE9F841FC
:100EB00006460F4614461D46DDF81C8013E0CDF8AB
:100EC000008022782B4639463046FFF789FE082DF0
:100ED00002D1B01DC6B205E0284605EBD07106EB85
:100EE0006101CEB2641C2078202802DB20787E28A5
:100EF000E5DDBDE8F88170B505460C46FFF7CAFA96
:100F0000782000F099F9FFF7F9FA1CB1402000F0C1
:100F100093F902E0002000F08FF9FFF7EFFA28467E
:100F200000F08AF9FFF7EAFAFFF7D2FA70BD7047CE
:100F300029B1064AD2690243044BDA6104E0034A4C
:100F4000D2698243014BDA61704700000010024011
:100F500029B1064A92690243044B9A6104E0034AAC
:100F600092698243014B9A61704700000010024071
:100F700030B500210022002400232D4D6D6805F0BE
:100F80000C0121B1042905D0082923D105E0294D00
:100F9000056022E0274D05601FE0254D6D6805F4D2
:100FA0007012234D6D6805F48034022505EB9242E2
:100FB0001CB9214D554305600BE01D4D6D6805F4CE
:100FC00000351DB11C4D5543056002E0194D5543D8
:100FD000056002E0174D056000BF00BF144D6D684D
:100FE00005F0F0010909154D6B5C0568DD404560B1
:100FF0000F4D6D6805F4E061090A104D6B5C4568A2
:10100000DD4085600A4D6D6805F46051C90A0B4DDD
:101010006B5C4568DD40C560054D6D6805F4404179
:10102000890B074D6B5CC568B5FBF3F5056130BDF9
:101030000010024000127A0000093D003402002036
:101040004402002008B58020ADF8000048208DF84B
:10105000030069460148FFF782F908BD000C014012
:1010600008B58020ADF8000010208DF803000320A3
:101070008DF8020069460348FFF771F90120024923
:10108000086008BD000C01409C81214210B5044657
:10109000FFF7F8FA8820FFF7C5FAFFF729FB200AC7
:1010A000FFF7C0FAFFF724FBE0B2FFF7BBFAFFF748
:1010B0001FFBFFF703FB322000F058FC10BD10B5FA
:1010C000FFF752FA10BD00002DE9FF5F0446894684
:1010D00042F60640FFF7DAFFFFF7D4FA8920FFF760
:1010E000A1FAFFF705FB0120FFF770FA8DF8080061
:1010F0000120FFF76BFA8DF809000120FFF766FA6F
:101100008DF80A000120FFF761FA8DF80B0001202D
:10111000FFF75CFA8DF80C000020FFF757FA8DF806
:101120000D00FFF7CBFA022102A800F067F89DF846
:101130000A1088424DD102210DF10B0000F05EF83B
:101140009DF80D10884244D19DF809109DF80820A3
:1011500001EB0221A1F10A0001F06BFA074600221F
:10116000204B01F07DFA054600221F4B01F0ACF840
:10117000824600221D4B00F0FFFFCDE9000101F087
:10118000FBF920609DF80C109DF80B2041EA02212C
:10119000642201FB02F001F04CFA07460022124BD8
:1011A00001F092F8054601F017FAA9F8000040F2A4
:1011B000E2412068884202DD0846206005E02068A0
:1011C00010F5C87F01DA0A482060002004B0BDE8AD
:1011D000F09F00202060A9F8000006A0FFF738F873
:1011E0000120F3E700E06540E0FFEF40008046C0EB
:1011F00070FEFFFF6661696C0000000030B50246BA
:101200000B46FF20002113E0555C684008240BE0EA
:1012100000F0800525B1312585EA4005E8B201E0FE
:101220004506280E651EECB2002CF1DC4D1CE9B21F
:101230009942E9DB30BD704770B5044600251FE0D8
:1012400004F0800028B14FF400610F48FFF71DF94A
:1012500004E04FF400610C48FFF715F9FFF77CFA42
:101260004FF480610848FFF710F9FFF775FA4FF463
:1012700080610548FFF707F96006040E681CC5B2D7
:10128000082DDDDB70BD0000000C014010B500F042
:1012900001F810BD0CB500200190009033480068A3
:1012A00040F480303149086000BF3048006800F4E5
:1012B000003000900198401C0190009818B90198E6
:1012C000B0F5A06FF1D12948006800F4003010B1EA
:1012D0000120009001E0002000900098012843D1F7
:1012E0002348006840F01000214908600846006863
:1012F00020F0030008600846006840F00200086023
:101300001A484068194948600846406848600846DD
:10131000406840F4806048600846406820F47C10D3
:1013200048600846406840F4E81048600846006895
:1013300040F08070086000BF0C48006800F000704A
:101340000028F9D00948406820F0030007494860A8
:101350000846406840F00200486000BF034840680B
:1013600000F00C000828F9D10CBD0000001002406C
:1013700000200240042808D14FF0E021096941F023
:1013800004014FF0E022116107E04FF0E02109690C
:1013900021F004014FF0E022116170477047000016
:1013A00010B51348006840F0010011490860084674
:1013B0004068104908400E494860084600680E49D8
:1013C00008400B4908600846006820F48020086047
:1013D0000846406820F4FE0048604FF41F00886013
:1013E000FFF754FF4FF000600449086010BD000093
:1013F000001002400000FFF8FFFFF6FE08ED00E0DD
:1014000010B540F22551174800F02DF940B31548AA
:1014100000F0E4F9C4B21448007808BB134800781F
:10142000012808D10A2C02D000F026F818E001208B
:101430000D49087014E00D2C03D101200B490870F0
:101440000EE00B480B49097844540A480078401CC8
:101450000849087008460078C82801DB00F00CF83D
:1014600010BD0000003801402402002025020020A9
:101470005C02002026020020002003490870034976
:1014800008700349087070472402002025020020DC
:101490002602002000B587B001210420FFF758FD87
:1014A00001218803FFF754FD18208DF81B004FF42D
:1014B0000070ADF8180001208DF81A0006A91F4829
:1014C000FEF74DFF04208DF81B000002ADF8180058
:1014D00001208DF81A0006A91848FEF740FF4FF4C6
:1014E000E13002900020ADF814000C20ADF812009D
:1014F0000020ADF81000ADF80E00ADF80C0002A908
:101500000F4800F0FFF801210D4800F093F8012288
:1015100040F225510A4800F0D0F825208DF804004B
:1015200001208DF807008DF805008DF8060001A850
:10153000FFF7BCF9FFF7A0FF07B000BD00080140AE
:101540000038014010B540F22551064800F08BF8F4
:1015500030B1044800F042F9C4B2204600F0F6FC75
:1015600010BD0000004400400020034908700349FA
:1015700008700349087070472702002028020020E5
:101580002902002000B587B001210420FFF7E0FC0C
:1015900001214804FFF7CCFC18208DF81B00042023
:1015A000ADF8180001208DF81A0006A91F48FEF7B3
:1015B000D6FE04208DF81B000820ADF8180001208D
:1015C0008DF81A0006A91948FEF7C9FE4FF4E1305C
:1015D00002900020ADF814000C20ADF8120000209D
:1015E000ADF81000ADF80E00ADF80C0002A91048DF
:1015F00000F088F801210E4800F01CF8012240F2AA
:1016000025510B4800F059F826208DF804000120E0
:101610008DF8070000208DF805008DF8060001A860
:10162000FFF744F9FFF7A0FF07B000BD0008014035
:101630000044004021B1828942F40052828104E0DA
:1016400082894DF6FF731A4082817047024600205E
:10165000B1F5007F00D100BF13880B400BB1012012
:1016600000E00020704770B50246002400230025EA
:10167000002040F66A16B14200D100BFC1F3421506
:1016800001F01F03012606FA03F3012D02D196890A
:10169000334006E0022D02D1168A334001E0968ADB
:1016A00033400C12012606FA04F41688344013B1B4
:1016B0000CB1012000E0002070BDF0B5034600240D
:1016C00000260025002040F66A17B94200D100BF6D
:1016D0001846C1F3421401F01F06012707FA06F568
:1016E000012C01D10C3004E0022C01D1103000E0BB
:1016F00014301AB107682F43076002E00768AF4350
:101700000760F0BD2DE9F04786B005460E4600247F
:10171000A24600BFA1460027B08900B100BF2F46F6
:101720002C8A4CF6FF700440F08804432C82AC896C
:101730004EF6F3100440B08831890843718908439C
:101740000443AC81AC8A4FF6FF400440B0890443A7
:10175000AC8201A8FFF70CFC1F48874202D1DDF8DC
:1017600010A001E0DDF80CA0A88900F4004040B111
:101770000AEBCA0000EB0A1031684900B0FBF1F82F
:1017800007E00AEBCA0000EB0A1031688900B0FBE1
:10179000F1F86420B8FBF0F004012009642101FB9A
:1017A0001089A88900F4004040B1322000EBC90044
:1017B000B0FBF1F000F00700044308E0322000EB3A
:1017C00009106421B0FBF1F000F00F0004432C81FC
:1017D00006B0BDE8F0870000003801400146888867
:1017E000C0F308007047C1F308028280704700BF51
:1017F000FEE700BF704770472DE9F05F04463349AC
:10180000E01C11F80080B8F10F0F5AD2DFE808F0A1
:10181000080B0E111C2024594A59595959594D0089
:1018200000F032F94EE000F0E7FA4BE000F024F966
:1018300048E02649A01D085C2549087000220321C4
:10184000084600F067FC3DE001202249087039E0BD
:1018500001202149087035E01C49601D095C1B4AC4
:10186000201D105C41EA0027002518E0A01D284437
:10187000801C1649085C4FF6FF7101EA0026A01D86
:101880002844C01C1149085C304486B22144891D9B
:10189000481900F023F88346301D284485B2BD4224
:1018A000E4DB0FE0FFF7A7FF0CE00849A01D11F8EB
:1018B0000090E01D11F800A05146484600F098FB4A
:1018C00000E000BF00BFBDE8F09F00009C060020C4
:1018D0005702002055020020560200202DE9F04753
:1018E0000446267894F80180A0784FF6FF7101EA4B
:1018F0000025E078284485B2304600F0A5F8074678
:10190000084800EB47004078404502D00020BDE881
:10191000F0872A46211D304600F074F8814648467B
:10192000F5E700004048000810B56FF00400FFF72D
:1019300021FD0A4800680A49B0FBF1F00949087026
:101940000846007800EB4001C1EBC0104FF6FF7174
:1019500001EAC0000449088010BD00001002002008
:1019600000127A0030020020320200200146114AA3
:1019700012884A434FF0E0235A6100229A611A46C6
:10198000126942F001021A6100BF4FF0E0221069B3
:1019900000F001021AB100F48032002AF5D04FF0B5
:1019A000E022126922F001024FF0E0231A610022C6
:1019B0009A617047320200200146114A12784A4368
:1019C0004FF0E0235A6100229A611A46126942F0F0
:1019D00001021A6100BF4FF0E022106900F001021D
:1019E0001AB100F48032002AF5D04FF0E0221269DB
:1019F00022F001024FF0E0231A6100229A61704741
:101A000030020020034600BF00BF00BF7047000047
:101A100000BF054A128802F04002002AF9D0C2B283
:101A2000014B1B1D1A8070470038014030B502463B
:101A30000020002305E012F8015B2C18E0B25C1CCA
:101A4000A3B28B42F7DB30BD70B5054600F012F84B
:101A50000646002407E0064810F81400A84200D10A
:101A600003E0601CC4B2B442F5DB00BF204670BD89
:101A7000404800080220704710B500242246032188
:101A8000022000F047FB10BD10B500240B48007881
:101A900040B90021204600F033FAC4B201200749C2
:101AA000087004E00121204600F02AFAC4B2224660
:101AB0000321002000F02EFB10BD00005802002082
:101AC0001CB54FF4A060FEF729FFFFF72DFFFEF7CE
:101AD0004BFDFFF7F4FAFEF7A3FFFFF7DBFCFFF780
:101AE00051FDFEF7B9FE00F06DFA0020FEF738FF59
:101AF0000020FEF743FFE5E000F07EFA00F07CFAFC
:101B0000FEF732FE7049087008460078012804D0BC
:101B1000022806D0032826D114E0002000F028F97E
:101B200022E0FEF773FE6948006808B9012000E072
:101B3000002066490860FFF71FF8FEF7F9FEFFF77F
:101B40001BF811E0FEF774FE6048006808B9012038
:101B500000E000205D490860FFF70EF8FEF7E8FEA0
:101B6000FFF70AF800E000BF00BF00F0FBF830B15B
:101B7000012807D0022808D0032810D10AE0FEF778
:101B800045FE0DE0FEF754FE0AE002215048FEF744
:101B90007CFC05E002214E48FEF775FC00E000BF2A
:101BA00000BF4C494C48FFF78FFAFEF7E5FF474866
:101BB0000068D0BB012010230022022100901046B3
:101BC000FFF7ACF8012010230246022100901220FA
:101BD000FFF7A4F80120102340A203210090252044
:101BE000FFF764F9012018210223CDE900103A48DB
:101BF000042102683720FFF713F90120102338A2CF
:101C00000A2100905220FFF751F9012010230246CB
:101C10000A2100905C20FFF781F80120102331A2F7
:101C20000A2100906D20FFF741F92848006801283B
:101C300039D110230222114600900020FFF76EF8E0
:101C4000012010230246022100901220FFF766F8BF
:101C50000120102321A2032100902520FFF726F95F
:101C6000012018210223CDE900101A48028804211E
:101C70003720FFF7D5F80120102319A20A21009080
:101C80005220FFF713F90120102317A20A21009018
:101C90005C20FFF70BF90120102312A20A2100900B
:101CA0006620FFF703F9FEF767FF0A480188022064
:101CB00000F01CF80848006800EB8000410001209B
:101CC00000F014F818E700000002002004020020D1
:101CD000000C01400C020020080200203A00000025
:101CE00028000000290000002500000070B505460E
:101CF0000C4600261A480078012800D170BD2946FC
:101D0000304600F0FDF806460221304600F0F8F8B3
:101D100006460021304600F0F3F80646042130461E
:101D200000F0EEF80646210E304600F0E9F80646CF
:101D3000C4F30741304600F0E3F80646C4F3072138
:101D4000304600F0DDF80646E1B2304600F0D8F843
:101D5000064632460321072000F0DCF90120CDE7DA
:101D6000540200200148007870470000570200200C
:101D700070B5044600250020064908702146284613
:101D800000F0BEF8C5B22A460321052000F0C2F9D2
:101D900070BD000056020020F0B505460E46134601
:101DA0002A46344605B10EB90020F0BDA24202D940
:101DB000E018904208D2002103E0605C5054481CB7
:101DC00081B29942F9DB07E0194603E0481E275C1F
:101DD000175481B20029F9DC2846E6E701460022C3
:101DE00009B900207047002200E0521C11F8013BA5
:101DF000002BFAD11046F5E73EB5002400200090F4
:101E00000190029025A0FFF7E9FF85B22A4623A1A1
:101E1000204600F061F8C4B222A0FFF7DFFF85B2D0
:101E20002A4620A1204600F057F8C4B222A0FFF7AE
:101E3000D5FF85B22A4620A1204600F04DF8C4B255
:101E40001FA0FFF7CBFF85B22A461DA1204600F058
:101E500043F8C4B21CA0FFF7C1FF85B22A461AA1FD
:101E6000204600F039F8C4B219A0FFF7B7FF85B2D9
:101E70002A4617A1204600F02FF8C4B215A0FFF79C
:101E8000ADFF85B22A4613A1204600F025F8C4B262
:101E900022460321012000F03DF93EBD7B22702245
:101EA0003A220000696679706163356A627A683047
:101EB0006E33307100000000222C2276223A22007C
:101EC000312E302E30000000222C226D223A0000EC
:101ED000320000007D0000002DE9F04104460E466E
:101EE0001546064807192A4631463846FFF754FF7B
:101EF000601984B22046BDE8F0810000D8060020B9
:101F0000024B1A181170431C98B27047D806002073
:101F10000B4909680B4A126891420FD008490A68B8
:101F200009498A4202D31739054A116004490968F0
:101F3000087803490968491C014A1160704700008C
:101F4000500200204C020020D206002012490968ED
:101F5000124A1268891A01291CD0104909680E4AD0
:101F60001268914206D90D4909680B4A1268891A0C
:101F700017290FD209490A6809498A4202D3173939
:101F8000064A116005490968087004490968491C36
:101F9000024A116070470000500200204C020020ED
:101FA000D206002010B5044621460548FFF71BFC69
:101FB00000BF40210248FFF749FB0028F9D010BDBF
:101FC00000440040054806490860064908600020B2
:101FD00005490870FF20054908707047BB060020BE
:101FE0004C02002050020020540200205702002022
:101FF00008B901B100BF704770B50024002509E0A1
:10200000FFF786FF38490A880988491C364B198032
:1020100036498854344800881F2803D200F09EF8BF
:102020000028EDDC30480088072800DA70BD42E067
:102030002E48005D552802D0601C84B23BE02B493D
:10204000601C085CAA2802D0601C84B233E02749D7
:10205000A01C085C10B1A01C84B22CE02349201DF8
:10206000085C4FF6FF7101EA00252049601D085CFD
:10207000C01D284485B2262D02D9E01C84B21AE086
:1020800019480088001BA84200DA19E06A1E91B2C4
:10209000164A1019FFF7CAFC6119491E134A515C10
:1020A000884202D0E01C84B205E02046FFF7A4FB82
:1020B000601984B200BF0C480088001B0728B7DAFB
:1020C00000BF09480088001B0749088008460088AF
:1020D000002806DD05480119034802880348FFF778
:1020E0005BFE00BFA2E70000480200209C06002023
:1020F00070B504460D4604B105B970BD03E0207803
:10210000FFF750FF641C281EA5F101018DB2F6D126
:1021100000BFF2E72DE9F04105460E4614460027C0
:1021200055200D490870AA20487008468670C57071
:10213000201208714C71E01D84B2601E81B2064805
:10214000FFF774FC0746601E03490F5421460248FE
:10215000FFF7CEFFBDE8F081D206002004480068FA
:1021600004490968884201D0012070470020FCE73B
:102170004C0200205002002010B591EA030F48BF26
:1021800083F0004300F17283841A71EB030C05D2D3
:10219000121943EB0C03001B61EB0C01DFF824E187
:1021A0004FEA1154A4EB135C1EEA430F18BF9EEADA
:1021B000445F73D023EA0E03DCF1200E21EA0451C0
:1021C00043F4801332D322FA0CFE10EB0E0023FAF4
:1021D0000CFE41EB0E01CCF1200E03FA0EFE10EBCB
:1021E0000E0051F10001B1F5801FCCF1200E32D26A
:1021F00001EB045112FA0EF2BDE8104058BF7047CF
:10220000401C38BF5FEA420218BF7047002814BF65
:1022100020F0010041F100014FEA410313F5001FD6
:1022200038BF7047A1F1C04100F012BB012A43EB57
:102230000302ACF1200CDCF11F0E32BF4FF0000E98
:1022400023FA0CF310EB030041EB0451B4EB115FE4
:10225000D0D0A1EB045101F5801149085FEA3000AC
:1022600001EB04510ED350F1000038BF12FA0EFEFC
:1022700008D1BDE81040C9E7401C38BF5FEA420200
:10228000CAD1C3E7BDE810404FEA410313F5001F70
:1022900038BF7047A1F1C04100F0DABA9EEA445F4E
:1022A00008D011EA5E0FBDE8104004BF01F0004104
:1022B00000207047BDE8104070B500F07BFA00BF09
:1022C00064FBBE3E0000E0FF2DE9C04130B4DFF802
:1022D000A0C23CEA111418BF3CEA131400F0EC80D1
:1022E00081EA03051CEA111444EAD57418BF1CEAFC
:1022F000131500F0C780A4EB05044FF0004545EA34
:10230000C12145EAC32341EA505143EA525304F143
:102310007F74994204F500344FEAC0204FEAC2228C
:1023200008BF904200F09C804FEA13650FF2401600
:10233000765D4FEA134506FB05F7C7F1807706FB8C
:1023400007F74FEAD737A7FB03687642C8F580380E
:10235000A7FB06CE38BFA8F1010807FB08E64FF03F
:10236000000EA6FB028CE6FB03CEDCF1000CCEF1E6
:10237000004E38BFAEF1010EA6FB0C584FF000071F
:102380004FF00005E6FB0E87A1FB08C6A0FB07CEB9
:1023900016EB0E0645F10005E1FB076515F1E04E71
:1023A0007EBFA4F580345FEA46066D4116F18007D2
:1023B00045F100054FEA17274FEA066647EA056729
:1023C000A6F1DE46B6F1805F4FEA15251FD93846E3
:1023D00024F0010C05EBC471BCF1FE6F01EB0C1194
:1023E00002D8F0BCBDE8008124425CBF01F5801E2C
:1023F0009EEAC47F02D4F0BCBDE80081244238D4F8
:10240000F0BCA1F1C041BDE8004100F021BA4FEAA3
:10241000D22242EA43524FEAD323A7FB02864FEA75
:10242000D02040EA415007FB03661EEA0E0F4FEA38
:10243000D12105FB026658BFA6EB0056B6EB00564D
:102440004FEA520E4EEAC37E18EB0E0E56EB530EB9
:10245000BDD518EB02085E417F1C55F10005B6E7BB
:102460004FF480154FF000074FF000064FF00008C2
:10247000ADE7F0BC4FF0000001F1C04101F00041B8
:10248000BDE8008111EA0C1F0CEA131500D00CE026
:1024900013EA0C1F00F025804FF00000F0BC81EA29
:1024A000030101F00041BDE80081F0BCBDE800413E
:1024B00081EA030100F0CCB9F0BCBDE8004170B581
:1024C00000F078F9097EFC3E00F007B881EA0301CC
:1024D0004FF0000001F00041704781EA030100F075
:1024E000B7B9F0BCBDE800414FF00000214970478A
:1024F000FFFDFBF9F7F5F4F2F0EEEDEBE9E8E6E4C9
:10250000E3E1E0DEDDDBDAD8D7D5D4D3D1D0CFCD4F
:10251000CCCBCAC8C7C6C5C4C2C1C0BFBEBDBCBB88
:10252000BAB9B8B7B6B5B4B3B2B1B0AFAEADACAB83
:10253000AAA9A8A8A7A6A5A4A3A3A2A1A09F9F9E5D
:102540009D9C9C9B9A99999897979695959493930F
:10255000929191908F8F8E8E8D8C8C8B8B8A8989A6
:102560008888878786858584848383828281818029
:102570000000FF070000F87F4FEA41034FEA535382
:10258000A3F58063D3F11E03C8BFD3F1210C0CDD8A
:102590004FF0004242EAC12242EA505232FA03FCB2
:1025A0008CEAE17CACEBE1707047102BC4BF0020DB
:1025B000704703F5787CBCF1FF3F04D06FF0004218
:1025C00082EA2100704770B500F0F4F84992248047
:1025D00000207047F2E700004FEA1153A3F5806333
:1025E000D3F11E03A8BFD3F1200C08DB4FF000424B
:1025F00042EAC12252EA505232FA03F070470942CD
:102600000BD4102BC4BF0020704703F5787CBCF1BD
:10261000FF3F05D04FF0FF3070474FF0000070478C
:1026200070B500F0C7F800BF4992248000207047C1
:10263000F0E710F0004248BF4042B0FA80F310FAD1
:1026400003F10AD0C3F11D0303F580634FEA415043
:1026500002EB035202EBD12170474FF000007047AC
:10266000DFF848C170B51CEA111E1EBF1CEA131525
:102670009EEA0C0F95EA0C0F00F06F8081EA0304CC
:1026800023EA4C134EEAD47E21EA4C1141F4801126
:1026900043F48013AE44A1FB024CA0FB0365AEF1F2
:1026A0007F7E361955EB0C05A1FB034C4CF1000362
:1026B000A0FB021C16EB0C06654153F10003094216
:1026C00018BF46F0010613F4007F0BD14FEA033127
:1026D0004FEA0530340341EA155140EA16506FF0D5
:1026E00003020AE04FEAC3214FEAC520F40241EA9F
:1026F000555140EA56506FF0020202EB2E4201EBB8
:10270000025585EACE710AD05FEA440C18BF24F066
:10271000004450F1000041F1000120EAD47040F281
:10272000FE7C624500D270BDA84214BF4FF08044C9
:102730004FF04044002E08BF0024BEF1806FA8BFB8
:10274000A1F1C041BDE8704080F282804FF00000EE
:1027500001F1C04101F0004170479EEA0C0F0CEA04
:10276000131518BF95EA0C0F06D04FF0000081EA50
:10277000030E0EF0004170BD00F01CF88900013E10
:1027800000F007B800F009B84FEA430C5FEA5C5C60
:1027900008D081EA030100F05BB84FEA410C5FEA20
:1027A0005C5CF6D14FF00000014970470000FF0764
:1027B0000000F87F0EF1020E2EF0030E5EF8046B9F
:1027C000364205D4012A43EB030515F5001F12D844
:1027D000012841EB010C1CF5001F0CD80ED14FEA6B
:1027E000D17C15F5001F0CEB4C0C0CF1020C08BF52
:1027F0004CEBD37C04E04FF0080C01E04FEAD37CB3
:102800000CEB4C0526FA05F606F00706B6F1040CAB
:1028100006D20EEB860CBDE870404CF0010C604710
:10282000DFE80CF0090B02024FF000414FF000000E
:10283000A1F5002170BD19461046012851EB010495
:1028400018BFD4F5001484BF002001F0004170BD12
:102850000808A0F500114FEA3101704710B591EA60
:10286000030F48BF83F000433FF58EAC841A71EB31
:10287000030C07D212198CF0004C43EB0C03001B25
:1028800061EB0C01DFF8A4E14FEA1154A4EB135CF7
:102890001EEA430F18BF9EEA445F00F0B08023EAAF
:1028A0006E03524221EA0451C3EB6E0338BF5B1E34
:1028B000DCF1200E25D322FA0CFE10EB0E0043FAB9
:1028C0000CFE41EB0E01CCF1200E03FA0EFE10EBD4
:1028D0000E0051F10001CCF1200E29D412FA0EF2B3
:1028E00001EB0451BDE8104058BF7047401C1CBFAD
:1028F000B2F1004F704700280CBF491C20F00100C6
:10290000704712EB020E43EB030218BF4FF0010EAB
:102910004EEA4202ACF1200CDCF11E0E54D943FA0F
:102920000CFE10EB0E0051F1FF31CCF11E0ED5D58F
:102930000EF1010E12FA0EFE404141EB010101EBD6
:10294000445C5FEA5C5C10D910EBDE7001EB045173
:1029500038BFBEF1004FBDE8104018BF70470028D7
:102960000CBF491C20F00100704730D24FEAD42C34
:1029700011F5001124F400641BD0B1FA81F20B3A76
:10298000A41AA41ED2F12003914030FA03F3194394
:10299000904001EBCC71002C01EB0451BDE81040DC
:1029A000A8BF704701F1C0414FF0000001F00041A5
:1029B0007047B0FA80F310FA03F100D110BDE41AA9
:1029C000173C4805C90AE4E701EB045110BD491062
:1029D00001EB0451BDE810404FEA300002E04FF037
:1029E000000170474A0008BF0042F8D0B2F5001F4E
:1029F00028BF704701F000414FF0000070479EEA89
:102A0000445F07D011EA5E0FBDE8104004BF00210B
:102A100000207047BDE8104070B5FFF7CBFE00BF47
:102A200040DFF63E83F00041104670470000E0FFB3
:102A30000000000000000000002F00000000070060
:102A4000070000147F147F1400242A7F2A120062DA
:102A50006408132300364955225000000503000086
:102A600000001C224100000041221C000014083E0E
:102A700008140008083E0808000000A060000008D4
:102A80000808080800006060000000201008040228
:102A9000003E5149453E0000427F400000426151E6
:102AA0004946002141454B31001814127F10002780
:102AB00045454539003C4A49493000017109050343
:102AC00000364949493600064949291E0000363674
:102AD00000000000563600000008142241000014D7
:102AE00014141414000041221408000201510906B4
:102AF00000324959513E007C1211127C007F494935
:102B00004936003E41414122007F4141221C007F65
:102B100049494941007F09090901003E4149497A73
:102B2000007F0808087F0000417F410000204041ED
:102B30003F01007F08142241007F40404040007F59
:102B4000020C027F007F0408107F003E4141413E9D
:102B5000007F09090906003E4151215E007F0919E5
:102B600029460046494949310001017F0101003FE2
:102B70004040403F001F2040201F003F4038403F62
:102B800000631408146300070870080700615149C6
:102B9000454300007F41410000552A552A55000059
:102BA00041417F00000402010204004040404040D7
:102BB000000001020400002054545478007F48446F
:102BC000443800384444442000384444487F0038A6
:102BD0005454541800087E0901020018A4A4A47CCF
:102BE000007F080404780000447D40000040808499
:102BF0007D00007F102844000000417F4000007CE1
:102C000004180478007C08040478003844444438EC
:102C100000FC242424180018242418FC007C080438
:102C2000040800485454542000043F444020003C11
:102C30004040207C001C2040201C003C4030403C98
:102C4000004428102844001CA0A0A07C0044645428
:102C50004C4414141414141400000000000000006C
:102C6000000000000000FC00000000000200000066
:102C7000000C020C020000000000000090D0BCD04C
:102C8000BC900003000300001824FE448C000302E3
:102C9000070201001824D8B04C8000030001020193
:102CA000C038E438E0000102020102020806000018
:102CB0000000000000000000000000F80402000016
:102CC00000010204000204F80000000402010000F8
:102CD0009060F86090000000010000002020FC20BF
:102CE00020000000010000000000000000000806B5
:102CF0000000000020202020200000000000000034
:102D00000000000000000002000000000080601CC5
:102D10000200040300000000F8040404F8000102AB
:102D2000020201000008FC00000000020302000093
:102D30001884442418000302020202000804242418
:102D4000D80001020202010040B088FC80000000AF
:102D5000000302003C242424C400010202020100FA
:102D6000F824242CC0000102020201000C04E41C1F
:102D70000400000003000000D8242424D80001022D
:102D80000202010038444444F8000003020201003A
:102D90000000100000000000020000000000200001
:102DA000000000000600000000205088040200001F
:102DB0000000010290909090900000000000000040
:102DC0000002048850200002010000001804C424FE
:102DD0001800000002000000F804E494F80001026A
:102DE0000202020000E09CF08000020300000302E7
:102DF00004FC2424D800020302020100F8040404A5
:102E00000C0001020202010004FC0404F8000203A9
:102E10000202010004FC24740C00020302020300FD
:102E200004FC24740C00020302000000F0080444B7
:102E3000CC4000010202010004FC2020FC0402033B
:102E4000000003020404FC04040002020302020066
:102E5000000404FC040406040403000004FC24D061
:102E60000C0402030200030204FC0400000002033D
:102E700002020203FC3CC03CFC0003000300030010
:102E800004FC30C4FC04020302000300F804040440
:102E9000F80001020202010004FC242418000203CD
:102EA00002000000F8848404F80001020207050013
:102EB00004FC246498000203020003021824244442
:102EC0008C000302020201000C04FC040C0000024E
:102ED0000302000004FC0000FC04000102020100E7
:102EE000047C80E01C040000030000001CE03CE0C7
:102EF0001C00000300030000049C609C040002030B
:102F000000030200041CE01C040000020302000095
:102F10000C84641C04000203020203000000FE0291
:102F20000200000007040400000E30C00000000092
:102F300000010200000202FE00000004040700007D
:102F40000004020400000000000000000000000077
:102F5000000008080808080800000200000000003F
:102F6000000000000040A0A0C00000010202030217
:102F700004FC2020C00000030202010000C0202049
:102F8000600000010202020000C02024FC000001D9
:102F90000202030200C0A0A0C00000010202020061
:102FA0000020F82424040002030202000040A0A034
:102FB000602000070A0A0A0404FC2020C000020363
:102FC000020003020020E4000000000203020000EF
:102FD000000020E4000008080807000004FC80E06E
:102FE00020200203020003020404FC00000002028D
:102FF00003020200E020E020C00003000300030001
:1030000020E02020C00002030200030200C02020B4
:10301000C00000010202010020E02020C000080FD3
:103020000A02010000C02020E0000001020A0F088F
:1030300020E0402020000203020000000060A0A069
:1030400020000002020203000020F820000000001F
:103050000102020020E00020E00000010202030261
:1030600020E0208060200000030100006080E080FC
:103070006000000300030000206080602000020365
:103080000003020020E02080602008080701000003
:103090000020A0602000000203020200000020DEE9
:1030A0000200000000070400000000FF0000000014
:1030B000000F00000002DE200000000407000000F6
:1030C00002010204040200000000000000000000F1
:1030D000000000000000000000000000000000F8F8
:1030E00000000000000000333000000000100C065B
:1030F000100C0600000000000000000040C07840F6
:10310000C0784000043F04043F040400007088FCC1
:1031100008300000001820FF211E0000F008F00019
:10312000E018000000211C031E211E0000F008888A
:10313000700000001E2123241927211010160E00F4
:10314000000000000000000000000000000000E09F
:1031500018040200000000071820400000020418B4
:10316000E00000000040201807000000404080F010
:10317000804040000202010F01020200000000F046
:10318000000000000101011F01010100000000001A
:103190000000000080B0700000000000000000008F
:1031A0000000000000010101010101010000000018
:1031B00000000000003030000000000000000000AF
:1031C00080601804006018060100000000E010088C
:1031D0000810E000000F102020100F00001010F861
:1031E000000000000020203F2020000000700808A0
:1031F0000888700000302824222130000030088820
:10320000884830000018202020110E000000C02047
:1032100010F8000000070424243F240000F8088868
:10322000880808000019212020110E0000E01088F5
:1032300088180000000F112020110E000038080827
:10324000C83808000000003F000000000070880837
:1032500008887000001C222121221C0000E01008B8
:103260000810E0000000312222110F00000000C011
:10327000C0000000000000303000000000000080AE
:10328000000000000000806000000000000080409E
:1032900020100800000102040810200040404040B7
:1032A000404040000404040404040400000810200A
:1032B000408000000020100804020100007048084F
:1032C0000808F0000000003036010000C030C828B7
:1032D000E810E0000718272423140B000000C03872
:1032E000E0000000203C23020227382008F88888EC
:1032F00088700000203F202020110E00C0300808F8
:1033000008083800071820202010080008F80808CE
:103310000810E000203F202020100F0008F88888C7
:10332000E8081000203F20202320180008F8888893
:10333000E8081000203F200003000000C03008080B
:103340000838000007182020221E020008F8080094
:103350000008F808203F210101213F20000808F85B
:10336000080800000020203F20200000000008087E
:10337000F8080800C08080807F00000008F888C03E
:1033800028180800203F20012638200008F80800EF
:1033900000000000203F20202020300008F8F80026
:1033A000F8F80800203F003F003F200008F830C038
:1033B0000008F808203F200007183F00E010080828
:1033C0000810E0000F10202020100F0008F8080857
:1033D0000808F000203F210101010000E01008086A
:1033E0000810E0000F18242438504F0008F888888F
:1033F00088887000203F2000030C3020007088086F
:10340000080838000038202121221C00180808F87C
:10341000080818000000203F2000000008F80800FD
:103420000008F808001F202020201F0008788800CE
:1034300000C83808000007380E010000F80800F83E
:103440000008F800033C0700073C030008186880E8
:103450008068180820302C03032C30200838C8005E
:10346000C83808000000203F2000000010080808AD
:10347000C83808002038262120201800000000FE4F
:10348000020202000000007F40404000000C30C0FB
:1034900000000000000000010638C0000002020227
:1034A000FE000000004040407F00000000000402D9
:1034B0000202040000000000000000000000000004
:1034C00000000000808080808080808000020204F4
:1034D00000000000000000000000000000008080EC
:1034E000808000000019242222223F2008F800805A
:1034F00080000000003F112020110E00000000801D
:1035000080800000000E11202020110000000080AB
:103510008088F800000E112020103F2000008080DD
:1035200080800000001F222222221300008080F0F1
:10353000888888180020203F20200000000080801C
:1035400080808000006B94949493600008F8008061
:1035500080800000203F210000203F2000809898BC
:10356000000000000020203F20200000000000801C
:103570009898000000C08080807F000008F800005C
:1035800080808000203F24022D302000000808F8B1
:10359000000000000020203F20200000808080806C
:1035A00080808000203F20003F20003F80800080FE
:1035B00080800000203F210000203F20000080800C
:1035C00080800000001F202020201F0080800080BD
:1035D0008000000080FFA12020110E00000000806C
:1035E00080808000000E112020A0FF80808080005D
:1035F0008080800020203F2120000100000080808A
:10360000808080000033242424241900008080E07E
:10361000808000000000001F20200000808000004B
:1036200000808000001F202020103F20808080002C
:103630000080808000010E3008060100808000803C
:10364000008080800F300C030C300F000080800061
:10365000808080000020312E0E312000808080008C
:103660000080808080818E7018060100008080803C
:10367000808080000021302C2221300000000000DA
:10368000807C020200000000003F4040000000007B
:10369000FF00000000000000FF0000000002027CAC
:1036A000800000000040403F0000000000060101D3
:1036B00002020404000000000000000000000000FE
:1036C00000000000000000000000000000000000FA
:1036D00000000000000000000000000000000000EA
:1036E0000000000000F0F0F000000000000000000A
:1036F00000017F010000000000000000001C1C1CF5
:103700000000000000008060301C8C60301C0C0049
:1037100000000000000000000000000000000000A9
:103720000000000000000000000000E000000000B9
:1037300000E000000086E69F86868686E69F86007B
:1037400000011F01010101011F010100000080C0F3
:103750006020F820E0C00000000003070C18FF7094
:10376000E18100000000070F10107F100F0700001C
:103770008060206080000000E02000000F302030DA
:103780009F70DC371030C0000000100E03000718D7
:10379000101807000000C02020E0C000000000005A
:1037A00080E01F38E88703C43C040000070F1810AE
:1037B000100B070D1010080000808C4C3800000022
:1037C00000000000000000000000000000000000F9
:1037D00000000000000000000000000000000000E9
:1037E000000080E0300804000000000000FEFF013F
:1037F00000000000000000000000030F182040003F
:1038000000040830E080000000000000000000001C
:1038100001FFFE0000000000004020180F03000020
:1038200000000000000000000000C00000000000D8
:10383000004266663C18FF183C66664200000000C5
:1038400000000300000000000000000000008000F5
:1038500000000000001010101010FF1010101010C9
:103860000000000000000300000000000000000055
:103870000000000000000000000000000000000048
:103880000000000000808C4C3800000000000000A8
:1038900000000000000000000000000000101010F8
:1038A00010101010101010000000000000000000A8
:1038B0000000000000000000000000000000000008
:1038C00000000000000000000000000000001C1CC0
:1038D0001C000000000000000000000000000000CC
:1038E000E0380C000000000080701C0300000000A5
:1038F0000060380E0100000000000000000080C0E1
:1039000060202060C080000000FEFF010000000079
:1039100001FFFE000001070E181010180E0701002D
:103920000000808080C0E000000000000000000077
:1039300000FFFF000000000000001010101F1F100B
:10394000101000000080402020202060C080000077
:1039500000030300804020381F070000001C1A19D4
:1039600018181818181F00000080C020202060C000
:1039700080000000000303001010182FE7800000F3
:1039800000070F10101010180F07000000000000B3
:103990000000C0E0F000000000C0B088868180FF19
:1039A000FF808000000000000010101F1F1010009A
:1039B0000000E060606060606060000000003F1038
:1039C00008080818F0E0000000070B101010101C89
:1039D0000F030000000080C040202020E0C0000055
:1039E00000FCFF211008080818F0E0000001070C97
:1039F00018101010080F03000000C0E06060606045
:103A000060E06000000003000000E0180700000014
:103A100000000000001F1F00000000000080C060C8
:103A20002020202060C080000087EF2C1818303044
:103A300068CF830000070F0810101010180F070040
:103A40000000C0C020202020C0800000001F3F6078
:103A50004040402010FFFE0000000C1C1010100819
:103A60000F03000000000000000000000000000044
:103A700000000000000E0E0E00000000000000001C
:103A8000001C1C1C000000000000000000000000E2
:103A90000000000000000000000C0C00000000000E
:103AA0000000000000583800000000000000000086
:103AB0000000008040201000000010284482010017
:103AC00000000000000000000000010204081000D7
:103AD000000000000000000000000000008484845A
:103AE000848484848484840000000000000000003A
:103AF00000000000000010204080000000000000D6
:103B0000000000000000018244281000000010089E
:103B1000040201000000000000C02020101010105E
:103B200030E0C0000003030000F010080C070300A1
:103B3000000000001C1C1C0000000000000000C071
:103B4000406020202040C00000FCFF01F00E03C1B7
:103B5000FE03807F0001070E0811111011090402F5
:103B60000000000080E0E000000000000000807C19
:103B70004340477FF880000010181F10000000002D
:103B8000131F1C1020E0E02020202060C0800000D7
:103B900000FFFF10101010182FE78000101F1F10DB
:103BA00010101010180F0700000080C040202020C7
:103BB0002060E00000FCFF010000000000000100A8
:103BC0000001070E181010100804030020E0E02088
:103BD00020202040C080000000FFFF000000000007
:103BE00001FFFE00101F1F10101018080E07010023
:103BF00020E0E020202020202060800000FFFF1037
:103C00001010107C00000000101F1F10101010106A
:103C10001018060020E0E0202020202060608000B6
:103C200000FFFF101010107C00000100101F1F107B
:103C30000000000000000000000080C06020202084
:103C400040E0000000FCFF0100004040C0C14040D7
:103C50000001070E181010100F0F000020E0E020E8
:103C60000000000020E0E02000FFFF101010101006
:103C700010FFFF00101F1F1000000000101F1F107A
:103C80000000202020E0E0202020000000000000B4
:103C900000FFFF000000000000001010101F1F10A8
:103CA0001010000000000000202020E0E020202074
:103CB00000000000000000FFFF0000000060E08046
:103CC0008080C07F3F00000020E0E020000020A0B6
:103CD0006020200000FFFF30187CE3C000000000DF
:103CE000101F1F10000001131F1C181020E0E020FF
:103CF000000000000000000000FFFF0000000000C6
:103D000000000000101F1F101010101010180600E7
:103D100020E0E0E000000000E0E0E02000FF013FE4
:103D2000FEC0E01E01FFFF00101F1000031F030074
:103D3000101F1F1020E0E0C0000000000020E02065
:103D400000FF0003071C78E08000FF00101F100038
:103D500000000000030F1F00000080C060202060F2
:103D6000C080000000FEFF010000000000FFFE0018
:103D70000001070E181010180C07010020E0E020C9
:103D80002020202060C0800000FFFF202020202075
:103D9000301F0F00101F1F10000000000000000067
:103DA000000080C060202060C080000000FEFF0195
:103DB0000000000000FFFE000001070E1111133C7F
:103DC0007C67210020E0E0202020202060C08000CF
:103DD00000FFFF101030F0D0080F0700101F1F1059
:103DE000000000030F1C10100080C0602020202065
:103DF0004040E00000070F0C1818303060E08100F0
:103E0000001F0C0810101010180F070080602020F1
:103E100020E0E020202060800100000000FFFF0083
:103E20000000000100000000101F1F100000000033
:103E300020E0E020000000000020E02000FFFF0064
:103E4000000000000000FF0000070F181010101005
:103E5000100807002060E0E02000000020E0602063
:103E60000000077FF88000807C0300000000000055
:103E7000071F1C070000000020E0E02000E0E02019
:103E80000020E0200007FFF8E01FFFFCE01F00001B
:103E90000000031F0300011F03000000002060E07A
:103EA000A0000020E0602000000000038F7CF8C626
:103EB000010000000010181E130001171F18100049
:103EC0002060E0E02000000020E06020000001070A
:103ED0003EF8E0180700000000000010101F1F103F
:103EE0001000000000806020202020A0E0E02000E2
:103EF00000000000C0F03E0F0300000000101C1F77
:103F000017101010101806000000000000FC040438
:103F1000040404000000000000FF00000000000096
:103F200000000000007F404040404000000010E0E2
:103F3000000000000000000000000000031C608082
:103F40000000000000000000000000030C70800072
:103F500000000404040404FC000000000000000051
:103F6000000000FF00000000000040404040407F93
:103F70000000000000000010080C040C08100000F5
:103F80000000000000000000000000000000000031
:103F90000000000000000000000000000000000021
:103FA0000000000000000000000000000000000011
:103FB00080808080808080808080808000000004FD
:103FC00004080800000000000000000000000000DD
:103FD00000000000000000000000000000000000E1
:103FE000000000000000000000000000000098D861
:103FF00044642424FCF80000000F1F18101010085F
:104000001F1F10180020E0F000000000000000005A
:104010000000FFFF180804040CF8F00000001F0F58
:1040200018101010180F030000000000000000001E
:104030000000000000E0F8180404043C3800000010
:1040400000030F0C10101010080600000000000004
:1040500000000020E0F0000000E0F81C0404040868
:10406000FFFF000000030F18101010081F0F0800BA
:104070000000000000000000000000000000E0F868
:10408000484444444C7870000000030F0C18101092
:10409000100804000000000080C0602020E0C00084
:1040A00000040404FFFF04040404000000001010D6
:1040B0001F1F101010000000000000000000000092
:1040C00000000000000070F88C04048CF874040CEC
:1040D000007076CF8D8D8D89C87870000020E0F05B
:1040E00000000000000000000000FFFF08040404BE
:1040F000FCF8000000101F1F100000101F1F100010
:1041000000000000006060000000000000000404E7
:1041100004FCFC000000000000001010101F1F1025
:1041200010100000000000000000006060000000AF
:1041300000000000040404FCFC0000000000C0C0FB
:104140008080C07F3F0000000020E0F00000000001
:10415000000000000000FFFF80C0F41C0404000009
:1041600000101F1F1100031F1C1010000000202052
:1041700020E0F000000000000000000000FFFF0051
:104180000000000000001010101F1F101010000091
:1041900000000000000000000000000004FCFC081B
:1041A00004FCFC0804FCFC00101F1F10001F1F1063
:1041B000001F1F10000000000000000000000000B1
:1041C0000004FCFC08080404FCF8000000101F1F99
:1041D000100000101F1F1000000000000000000071
:1041E0000000000000E0F0180C04040C18F0E000DF
:1041F00000030F0C101010100C0F03000000000043
:1042000000000000000000000004FCFC080404049E
:104210000CF8F0000080FFFF889010101C0F0300C6
:1042200000000000000000000000000000E0F81C9A
:1042300004040408F8FC000000030F181010908814
:10424000FFFF8000000000000000000000000000F0
:10425000040404FCFC100804040C0C001010101FD3
:104260001F101010000000000000000000000000FF
:104270000000000000003078CCC48484840C1C0052
:1042800000001E1810101011190F06000000000089
:1042900000C000000000000000040404FFFF04044C
:1042A00004000000000000000F1F1010100C0000A0
:1042B0000000000000000000000000000004FCFE00
:1042C00000000004FCFE000000000F1F1810100882
:1042D0001F0F0800000000000000000000000000A8
:1042E00000040C3CFCC40000C43C0C0400000000B2
:1042F000010F1E0E01000000000000000000000081
:1043000000000000043CFCC400E47CFC84807C04CD
:104310000000071F070000071F0700000000000043
:1043200000000000000000000004041C7CE4C03415
:104330001C0404000010101C1601131F1C18100090
:1043400000000000000000000000000000040C3C21
:10435000FCC400C43C0404000000C080C1370E014E
:10436000000000000000000000000000000000004D
:1043700000001C0404C4F47C1C0400000000101C99
:104380001F17111010180E0000000000000000F8A8
:104390000C04000000000000001028EF00000000E6
:1043A000000000000000003F60400000000000002E
:1043B0000000FF0000000000000000000000FF00FF
:1043C00000000000000000000000FF0000000000EE
:1043D0000000040CF80000000000000000000000D5
:1043E000EF28100000000000000040603F000000C7
:1043F0000000000000180602020408102020300807
:1044000000000000000000000000000000000000AC
:1044100000000000000000001060028C0000FE920E
:1044200092929292FE00000004047E01407E42427D
:104430007E427E42427E40000000FC242424FC2573
:104440002624FC242424040040308F80844C5525ED
:104450002525554C808080001060028C00FE9292D1
:1044600092929292FE00000004047E014448507F24
:1044700040407F50484440000000F888888888FF0A
:1044800088888888F800000000001F080808087F56
:10449000888888889F80F00080828282828282E27F
:1044A000A2928A8682808000000000000040807F07
:1044B0000000000000000000101010FF109008889D
:1044C0008888FF88888808000444827F01808040B3
:1044D000432C1028468180000010101010D030FFAF
:1044E00030D0121C1010000010080402010000FF60
:1044F000000001020408100004040484E43C2724A2
:10450000242424E40404040004020100FF0909092E
:104510000949897F0000000000FE225A8600FE92B1
:1045200092929292FE00000000FF04080700FF40F4
:1045300020030C1422414000008040201806800017
:10454000071820408000000001002070282621204C
:104550002024386000010100001012929292929281
:1045600092121202FE0000000000003F1010101016
:104570003F0040807F000000000000C080808080FD
:10458000808080FC84808080808080C0C0000000AB
:10459000000000FF7F404040404040FF404040401E
:1045A000404040FF7F0000000000000000000000CD
:1045B0000000007F7000000000000000000000000C
:1045C000000000000000000000000000000000FCEF
:1045D000F8000000000000000000000000000000E3
:1045E00000000000FFFE020202020202020202FFBD
:1045F000FF020202020202020202FF0300000000A8
:10460000000000001F1F040404040404040404FF49
:10461000FF0404040404040404041F000000000058
:104620000000000000000000000000000000007F0B
:104630003F0000000000000000000000000000003B
:10464000000000000000000000000000000000006A
:1046500000000000000000000000000000F8F8F07A
:10466000F0702000000000000000000000000000CA
:10467000000000000000000000000000000000003A
:1046800000000000000000008000000000000000AA
:1046900000000000000000000000000000FFFFFF1D
:1046A000FF0000000000000000000000000000000B
:1046B00000000000808000000000000000000000FA
:1046C000000000000000000000FFFFFE06060606D6
:1046D00006060606060606060606060606FFFFFF8F
:1046E000FF06060606060606060606060606060671
:1046F000060606FFFFFFFF070200000000000000A3
:10470000000000000000000000FFFFFF00000000AC
:1047100000000000000000000000000000FFFFFF9C
:10472000FF0000000000000000000000000000008A
:10473000000000FFFFFFFF0000000000000000007D
:10474000000000000000000000FFFFFF181818180C
:1047500018181818181818181818181818FFFFFF24
:10476000FF181818181818181818181818181818E2
:10477000181818FFFFFFFF000000000000000000F5
:104780000000000000000000020101000000000025
:1047900000000000000000000000000000FFFFFF1C
:1047A000FF0000000000000000000000000000000A
:1047B00000000001010000000000000000000000F7
:1047C00000000000000000000000000000000000E9
:1047D00000000000000000000000000000FFFFFFDC
:1047E000FF000000000000000000000000000000CA
:1047F00000000000000000000000000000000000B9
:1048000000000000000000000000000000000000A8
:10481000000000000000000000000000001F1F0F4B
:104820000F00000000000000000000000000000079
:104830000000000000000000000000000000000078
:104840000102020264480008000000205C0200002F
:104850006C010008784900085C020020140B00007D
:10486000C80100081116060AFE0AC612E012F0027C
:1048700014F80416FCFCFC8DF8F8F0B0019BF8F875
:104880003E9DF8F830301C4EB0B0303030208F787C
:1048900048FE82BABA030218FE3DFFFFFE06014C35
:1048A000FFFFFF09290A712A60011D6FEFEF670101
:1048B0001C7F7F7F062DE7EFEF6F15693D6808309D
:1048C00030313131F1F1051980793D0110280A2488
:1048D000A42E24E4242EA424B910094A4C48F848F4
:1048E0004C4AF8EC1F1F0F80C41F1F1F380980BFE0
:1048F000FFF3F33333F305BCFFBFBFBD113F80C0EF
:10490000F07E3F0F0C3AC00129801CC0201001AB83
:1049100020C00A11300A120A07027F02070A121E7B
:104920000B0A0A0A7F04A20B04113F3F3F280F180D
:104930001C0C0E070703010D0C1C3C3F1F66700882
:10494000010303070F1E1E19BDCC0F0D0C0129BD5D
:10495000980A1F2040404050205F800A011184A225
:104960004A040009140102030406070809291C6906
:084970002005140204060800F2
:040000050800020DE0
:00000001FF
